:1000000002050602049B00000000000205710000CA
:100010000000000204CC000000000002000000000C
:06002000000000020000D8
:0A0026007E097FE9DFFEDEFC002208
:060030007F14DFFE002238
:020036000022A6
:10003800E5155480F8630080E86004780080027851
:1000480001E8139285E5155440F8630040E8600420
:10005800780080027801E8139284E5155420F8634B
:100068000020E86004780080027801E8139283E5B4
:10007800155410F8630010E86004780080027801D5
:10008800E8139282E50C6004780080027801E81396
:100098009280D2811136C281E5155408F8630008B0
:1000A800E86004780080027801E8139285E5155429
:1000B80004F8630004E86004780080027801E8131B
:1000C8009284E5155402F8630002E8600478008021
:1000D800027801E8139283E5155401F8630001E8FA
:1000E8006004780080027801E8139282E50C6004CD
:1000F800780080027801E8139280D2811136C2819B
:0B010800E50C6004112680021130227B
:0C011300750C008514151138750C0122C4
:10011F00C3E510940074006480F8E5116480985072
:10012F000CC374009510F874009511F922A810A94A
:02013F0011228B
:100141008019751080802E7510C0802975109480DB
:10015100247510D4801F751080801AE51064016029
:10016100E1E510640260E0E510640360DFE510641E
:100171000460DE80E1C3E5119401F8E51028F885FB
:1001810000108500151138750C00751300E5122556
:1001910013F8E6600DE5122513F8861431130513E3
:0601A10080EB750C012249
:1001A7007510017511017512313141D2927E027FAE
:1001B7009DDFFEDEFC00C2927E047F3CDFFEDEFC9C
:0501C7000075A887226D
:1001CC00754B00C3E54B940450197447254BF886C6
:1001DC0001E964017009E54B650F6003854B6E0501
:1001EC004B80E0C3E509950BF9E49400FAD3E9944C
:1001FC000074006480F8EA6480984005750A0180F8
:10020C0003750AFFC3E56E950BF9E49400FAD3E984
:10021C00940074006480F8EA6480984005855D5C05
:10022C00800A855DF074FFA4F885005CE50A655CC6
:10023C007014856E09C3E56E950BF510E49400F50A
:07024C0011311F850008229B
:1002530053900F80114390808022439040801D4330
:1002630090C080188016E50F640160E9E50F640211
:0D02730060E8E50F640360E7E50F60E82236
:10028000E54C6012754C007D137E007FBBDFFEDE07
:07029000FCDDFA0080EA2208
:1002970075100175110175124D3141D2927E047F9F
:1002A7003CDFFEDEFC00C2927E047F3CDFFEDEFC0C
:0502B7000075A8822281
:1002BC00D374006480F8E50F648098401D751001BC
:1002CC0075110175126F3141D290C2917D0D7EABCB
:1002DC007F7CDFFEDEFCDDFA801B751001751101E1
:1002EC007512683141C290D2917D0D7EAB7F7CDF5F
:0602FC00FEDEFCDDFA222B
:1003020080347510027511017512543141803D75AA
:10031200100275110175125E31418030751002753F
:10032200110175123F31418023751002751101755B
:10033200123731418016E50F640160C6E50F640291
:0D03420060CDE50F640360D4E50F60DD229F
:08034F00E493F608A3D9F9229A
:10035700C281C280112611261126C285C284C2839A
:10036700C282D283D282D2811136C2811126D28132
:100377001136C2811126D2811136C2811126D2834C
:10038700C282D2811136C2811126C285C284C2833C
:10039700D283C282D2811136C281C283D285D281F1
:1003A7001136C2811126C285D282D2811136C2810D
:1003B700C282D2811136C2811126C282D281113600
:1003C700C281D282D2811136C2811126C282D281E4
:1003D7001136C281D285D284D283D282D28111369C
:0803E700C2811126750C0122F0
:1003EF00850B0F5153850D09754C01A80BE4F9C30B
:1003FF00E50D98F510E49400F511311F850008C341
:10040F00E509950BF9E49400FAD3E99400740064BC
:10041F0080F8EA648098400575530180037553FF97
:10042F00518051977D077E567F3CDFFEDEFCDDFA63
:10043F00756700C3E5679508502C850D0F31CC8586
:10044F00090F710285530F51BCE50B2553F8850039
:10045F000B85000F51537D047E2B7F9DDFFEDEFC4D
:10046F00DDFA056780CDC290C29174472509F876F1
:10047F00007D077E567F3CDFFEDEFCDDFA31A77D77
:0C048F00047E2B7F9DDFFEDEFCDDFA22E8
:10049B00C005C006C007C0D0C0E0C0F0C082C0839A
:1004AB00D2937D0D7EAB7F7CDFFEDEFCDDFAC2934B
:1004BB00D083D082D0F0D0E0D0D0D007D006D005FA
:0104CB0032FE
:1004CC00C005C006C007C0D0C0E0C0F0C082C08369
:1004DC00D2927E027F9DDFFEDEFC00C2927D207EEA
:1004EC00AB7F39DFFEDEFCDDFAD083D082D0F0D0DA
:0A04FC00E0D0D0D007D006D00532C2
:1005060075811612068B75900075B00075A0FF7583
:10051600890175A887759850758AE5758CBEC2885D
:10052600D28AD28C71577E117F34DFFEDEFC0075D5
:10053600150C113875150111387D077E567F3CDF85
:10054600FEDEFCDDFA753000C3E530940450187405
:10055600472530F88601E96401700885300DE4F519
:0B0566000E71EF053080E180CB80FEBD
:10057100C0D0C0E0C0F0C082C083E5B030E00675F5
:100581004701750900E5B030E109754801750901B8
:10059100755D01E5B030E609754801750901755DC4
:1005A100FFE5B030E709754901750902755D01E59F
:1005B100B030E409754901750902755DFFE5B03098
:1005C100E506754A01750903D2A3A2A392A2A2A2CC
:1005D10092A1A2A192A0C2A020A403754801D2A316
:1005E100A2A392A2A2A292A1A2A192A0C2A020A57E
:1005F10003754901D2A3A2A392A2A2A292A1A2A190
:1006010092A0C2A020A603754A01D2A3A2A392A2DE
:10061100A2A292A1A2A192A0C2A320A50375470103
:10062100D2A3A2A392A2A2A292A1A2A192A0C2A38A
:1006310020A603754C01C28DD28CD083D082D0F01C
:05064100D0E0D0D03232
:0E068B007830794575824675830612034F223A
:0106460000B3
:060647004F70656E2000FB
:08064D00476F20746F2030009C
:08065500476F20746F20330091
:04065D000000000099
:010661000098
:010662000196
:06066300436C6F7365009B
:010669000090
:08066A00476F20746F2031007E
:010672000087
:010673000185
:0906740020476F20746F20320052
:01067D00007C
:06067E00446F776E2000BE
:010684000075
:060685005570202020004A
:00000001FF
